{
  "contractName": "IoTMessageProtocol",
  "abi": [
    {
      "inputs": [
        {
          "internalType": "uint256",
          "name": "",
          "type": "uint256"
        }
      ],
      "name": "messages",
      "outputs": [
        {
          "internalType": "address",
          "name": "sender",
          "type": "address"
        },
        {
          "internalType": "address",
          "name": "recipient",
          "type": "address"
        },
        {
          "internalType": "bytes",
          "name": "encryptedMessage",
          "type": "bytes"
        }
      ],
      "stateMutability": "view",
      "type": "function"
    },
    {
      "inputs": [
        {
          "internalType": "address",
          "name": "_recipient",
          "type": "address"
        },
        {
          "internalType": "bytes",
          "name": "_encryptedMessage",
          "type": "bytes"
        }
      ],
      "name": "sendMessage",
      "outputs": [],
      "stateMutability": "nonpayable",
      "type": "function"
    },
    {
      "inputs": [],
      "name": "getMessages",
      "outputs": [
        {
          "components": [
            {
              "internalType": "address",
              "name": "sender",
              "type": "address"
            },
            {
              "internalType": "address",
              "name": "recipient",
              "type": "address"
            },
            {
              "internalType": "bytes",
              "name": "encryptedMessage",
              "type": "bytes"
            }
          ],
          "internalType": "struct IoTMessageProtocol.Message[]",
          "name": "",
          "type": "tuple[]"
        }
      ],
      "stateMutability": "view",
      "type": "function"
    }
  ],
  "bytecode": "0x608060405234801561000f575f80fd5b50610bf68061001d5f395ff3fe608060405234801561000f575f80fd5b506004361061003f575f3560e01c80630d80fefd146100435780635ff6cbf314610075578063bb5ddb0f14610093575b5f80fd5b61005d60048036038101906100589190610498565b6100af565b60405161006c9392919061058c565b60405180910390f35b61007d6101a7565b60405161008a9190610727565b60405180910390f35b6100ad60048036038101906100a8919061089d565b61033b565b005b5f81815481106100bd575f80fd5b905f5260205f2090600302015f91509050805f015f9054906101000a900473ffffffffffffffffffffffffffffffffffffffff1690806001015f9054906101000a900473ffffffffffffffffffffffffffffffffffffffff169080600201805461012690610924565b80601f016020809104026020016040519081016040528092919081815260200182805461015290610924565b801561019d5780601f106101745761010080835404028352916020019161019d565b820191905f5260205f20905b81548152906001019060200180831161018057829003601f168201915b5050505050905083565b60605f805480602002602001604051908101604052809291908181526020015f905b82821015610332578382905f5260205f2090600302016040518060600160405290815f82015f9054906101000a900473ffffffffffffffffffffffffffffffffffffffff1673ffffffffffffffffffffffffffffffffffffffff1673ffffffffffffffffffffffffffffffffffffffff168152602001600182015f9054906101000a900473ffffffffffffffffffffffffffffffffffffffff1673ffffffffffffffffffffffffffffffffffffffff1673ffffffffffffffffffffffffffffffffffffffff1681526020016002820180546102a390610924565b80601f01602080910402602001604051908101604052809291908181526020018280546102cf90610924565b801561031a5780601f106102f15761010080835404028352916020019161031a565b820191905f5260205f20905b8154815290600101906020018083116102fd57829003601f168201915b505050505081525050815260200190600101906101c9565b50505050905090565b5f60405180606001604052803373ffffffffffffffffffffffffffffffffffffffff1681526020018473ffffffffffffffffffffffffffffffffffffffff1681526020018381525090505f81908060018154018082558091505060019003905f5260205f2090600302015f909190919091505f820151815f015f6101000a81548173ffffffffffffffffffffffffffffffffffffffff021916908373ffffffffffffffffffffffffffffffffffffffff1602179055506020820151816001015f6101000a81548173ffffffffffffffffffffffffffffffffffffffff021916908373ffffffffffffffffffffffffffffffffffffffff160217905550604082015181600201908161044c9190610af1565b505050505050565b5f604051905090565b5f80fd5b5f80fd5b5f819050919050565b61047781610465565b8114610481575f80fd5b50565b5f813590506104928161046e565b92915050565b5f602082840312156104ad576104ac61045d565b5b5f6104ba84828501610484565b91505092915050565b5f73ffffffffffffffffffffffffffffffffffffffff82169050919050565b5f6104ec826104c3565b9050919050565b6104fc816104e2565b82525050565b5f81519050919050565b5f82825260208201905092915050565b5f5b8381101561053957808201518184015260208101905061051e565b5f8484015250505050565b5f601f19601f8301169050919050565b5f61055e82610502565b610568818561050c565b935061057881856020860161051c565b61058181610544565b840191505092915050565b5f60608201905061059f5f8301866104f3565b6105ac60208301856104f3565b81810360408301526105be8184610554565b9050949350505050565b5f81519050919050565b5f82825260208201905092915050565b5f819050602082019050919050565b6105fa816104e2565b82525050565b5f82825260208201905092915050565b5f61061a82610502565b6106248185610600565b935061063481856020860161051c565b61063d81610544565b840191505092915050565b5f606083015f83015161065d5f8601826105f1565b50602083015161067060208601826105f1565b50604083015184820360408601526106888282610610565b9150508091505092915050565b5f6106a08383610648565b905092915050565b5f602082019050919050565b5f6106be826105c8565b6106c881856105d2565b9350836020820285016106da856105e2565b805f5b8581101561071557848403895281516106f68582610695565b9450610701836106a8565b925060208a019950506001810190506106dd565b50829750879550505050505092915050565b5f6020820190508181035f83015261073f81846106b4565b905092915050565b610750816104e2565b811461075a575f80fd5b50565b5f8135905061076b81610747565b92915050565b5f80fd5b5f80fd5b7f4e487b71000000000000000000000000000000000000000000000000000000005f52604160045260245ffd5b6107af82610544565b810181811067ffffffffffffffff821117156107ce576107cd610779565b5b80604052505050565b5f6107e0610454565b90506107ec82826107a6565b919050565b5f67ffffffffffffffff82111561080b5761080a610779565b5b61081482610544565b9050602081019050919050565b828183375f83830152505050565b5f61084161083c846107f1565b6107d7565b90508281526020810184848401111561085d5761085c610775565b5b610868848285610821565b509392505050565b5f82601f83011261088457610883610771565b5b813561089484826020860161082f565b91505092915050565b5f80604083850312156108b3576108b261045d565b5b5f6108c08582860161075d565b925050602083013567ffffffffffffffff8111156108e1576108e0610461565b5b6108ed85828601610870565b9150509250929050565b7f4e487b71000000000000000000000000000000000000000000000000000000005f52602260045260245ffd5b5f600282049050600182168061093b57607f821691505b60208210810361094e5761094d6108f7565b5b50919050565b5f819050815f5260205f209050919050565b5f6020601f8301049050919050565b5f82821b905092915050565b5f600883026109b07fffffffffffffffffffffffffffffffffffffffffffffffffffffffffffffffff82610975565b6109ba8683610975565b95508019841693508086168417925050509392505050565b5f819050919050565b5f6109f56109f06109eb84610465565b6109d2565b610465565b9050919050565b5f819050919050565b610a0e836109db565b610a22610a1a826109fc565b848454610981565b825550505050565b5f90565b610a36610a2a565b610a41818484610a05565b505050565b5b81811015610a6457610a595f82610a2e565b600181019050610a47565b5050565b601f821115610aa957610a7a81610954565b610a8384610966565b81016020851015610a92578190505b610aa6610a9e85610966565b830182610a46565b50505b505050565b5f82821c905092915050565b5f610ac95f1984600802610aae565b1980831691505092915050565b5f610ae18383610aba565b9150826002028217905092915050565b610afa82610502565b67ffffffffffffffff811115610b1357610b12610779565b5b610b1d8254610924565b610b28828285610a68565b5f60209050601f831160018114610b59575f8415610b47578287015190505b610b518582610ad6565b865550610bb8565b601f198416610b6786610954565b5f5b82811015610b8e57848901518255600182019150602085019450602081019050610b69565b86831015610bab5784890151610ba7601f891682610aba565b8355505b6001600288020188555050505b50505050505056fea26469706673582212202ab977656cf5687d1c6a14ebd8ac90662abe018145c992c549eeac6a84f9063964736f6c63430008150033",
  "immutableReferences": {},
  "source": "// Solidity Smart Contract\npragma solidity ^0.8.15;\n\ncontract IoTMessageProtocol {\n    struct Message {\n        address sender;\n        address recipient;\n        bytes encryptedMessage;\n    }\n\n    Message[] public messages;\n\n    function sendMessage(address _recipient, bytes memory _encryptedMessage) public {\n        Message memory newMessage = Message({\n            sender: msg.sender,\n            recipient: _recipient,\n            encryptedMessage: _encryptedMessage\n        });\n        messages.push(newMessage);\n    }\n\n    function getMessages() public view returns (Message[] memory) {\n        return messages;\n    }\n}\n",
  "sourcePath": "/home/klr/GolandProjects/custom-blockchain-iot-protocol/contracts/protocal.sol",
  "compiler": {
    "name": "solc",
    "version": "0.8.21+commit.d9974bed.Emscripten.clang"
  },
  "schemaVersion": "3.4.15",
  "updatedAt": "2023-09-03T06:44:02.148Z",
  "devdoc": {
    "kind": "dev",
    "methods": {},
    "version": 1
  },
  "userdoc": {
    "kind": "user",
    "methods": {},
    "version": 1
  }
}